:020000040800F2
:10000000A053002059020008A53B0008393700081A
:10001000A13B00081D060008FD4900080000000083
:10002000000000000000000000000000E13C0008AB
:100030007907000800000000713C0008793D0008C5
:1000400073020008730200087302000873020008BC
:1000500073020008730200087302000873020008AC
:10006000730200087302000873020008730200089C
:1000700021060008730200087302000873020008DA
:10008000730200087302000873020008730200087C
:10009000730200087302000873020008730200086C
:1000A000730200087302000873020008730200085C
:1000B000730200087302000873020008730200084C
:1000C000730200087302000873020008730200083C
:1000D000730200087302000873020008ED4900086B
:1000E000730200087302000873020008613E0008F2
:1000F0008D3E00087D3E0008730200087302000870
:1001000073020008730200087302000873020008FB
:1001100073020008730200087302000873020008EB
:1001200073020008730200087302000873020008DB
:1001300073020008000000000000000073020008C5
:1001400073020008730200087302000873020008BB
:1001500073020008730200087302000873020008AB
:10016000730200087302000873020008730200089B
:100170007302000873020008000000000000000085
:10018000730200087302000800F002F800F054F84F
:1001900014A696E8000CB244B344DA4501D100F04D
:1001A0004BF8BAE80F000FA696E83000A5EB04055F
:1001B00004EB0607AAEB0704A7F101074FEA1515A0
:1001C0004FEA3414A4F10104AC4201D300F034F836
:1001D00013F0010F18BFFB1A43F0010300F001F800
:1001E000DBE71847F07E0000107F0000103A24BFC4
:1001F00078C878C1FAD8520724BF30C830C144BF8C
:1002000004680C6070470000704700000023002461
:1002100000250026103A28BF78C1FBD8520728BF16
:1002200030C148BF0B6070471FB507F0B3FE00F048
:1002300023F91FBD10B510BD00F078F91146FFF786
:10024000F3FF04F059FE00F096F903B4FFF7F2FF54
:1002500003BC00F065F900000948804709480047E1
:10026000FEE7FEE7FEE7FEE7FEE7FEE7FEE7FEE766
:10027000FEE7FEE704480549054A064B70470000C3
:100280004D3E000889010008A04D0020A053002029
:10029000A04F0020A04F002053EA020C00F069801C
:1002A0002DE9F04B4FF00006002B1FBFB3FA83F58A
:1002B00003FA05F424FA05F65E4012BF1643B2FABB
:1002C00082F502FA05F4C5F120051EBF22FA05FCED
:1002D00044EA0C04203556EA044C4FEA144418BF93
:1002E000641C4FF000084FF00009904271EB030CC2
:1002F00039D3002919BFB1FA81F701FA07F6B0FA2C
:1003000080F700FA07F6C7F120071EBF20FA07FCA6
:1003100046EA0C062037B6FBF4FCA7EB0507103FB6
:1003200007F01F0BCBF120062CFA06F60CFA0BFB9C
:1003300044BFB3460026202FA4BF5E464FF0000BFB
:100340005BEA060C08BF4FF0010B19EB0B0948EBF9
:100350000608ABFB027C06FB02CC0BFB03CCC01BEC
:1003600071EB0C01C1E70B46024641464846BDE829
:10037000F08B13B5084318BF4FF0FF300146AFF3C1
:100380000080BDE81C407047032A40F2308010F026
:10039000030C00F0158011F8013BBCF1020F624420
:1003A00098BF11F801CB00F8013B38BF11F8013BB1
:1003B000A2F1040298BF00F801CB38BF00F8013B5E
:1003C00011F0030300F06E80083AC0F0088051F885
:1003D000043B083A51F804CBA0E80810F5E7121DD9
:1003E0005CBF51F8043B40F8043BAFF30080D207F8
:1003F00024BF11F8013B11F801CB48BF11F8012BC4
:1004000024BF00F8013B00F801CB48BF00F8012BE6
:10041000704702F0FF0343EA032242EA024200F07F
:1004200002B84FF0000200B51346944696462039B4
:1004300022BFA0E80C50A0E80C50B1F12001BFF49D
:10044000F7AF090728BFA0E80C5048BF0CC05DF803
:1004500004EB890028BF40F8042B08BF704748BF51
:1004600020F8022B11F0804F18BF00F8012B7047C5
:10047000704770477047000008487CB5784400908A
:1004800007487844009C0546019004E02046016836
:1004900008448047241DAC42F8D17CBD747C000028
:1004A000767C000010B5203AC0F00B80B1E81850FF
:1004B000A0E81850B1E81850A0E81850203ABFF44E
:1004C000F5AF5FEA027C24BFB1E81850A0E81850ED
:1004D00044BF18C918C0BDE810405FEA827C24BF41
:1004E00051F8043B40F8043B08BF7047D20728BFCF
:1004F00031F8023B48BF11F8012B28BF20F8023B1E
:1005000048BF00F8012B704710B5002000F03CF800
:10051000FFF790FEBDE81040012000F001B8000098
:1005200001491820ABBEFEE726000200754600F028
:1005300033F8AE4605006946534620F0070085466D
:1005400018B020B5FFF796FEBDE820404FF000063A
:100550004FF000074FF000084FF0000BAC46ACE83E
:10056000C009ACE8C009ACE8C009ACE8C00921F09A
:1005700007018D46704710B50446AFF30080204652
:10058000BDE81040FFF761BE10B500F00FF8BDE800
:10059000104000F006B8000000487047100000202E
:1005A0007047002801D0FFF7BBBF704710B500218E
:1005B00002A000F013F8012010BD0000534947418C
:1005C0004252543A2041626E6F726D616C207465C4
:1005D000726D696E6174696F6E00000070B50546DA
:1005E0000C460A2000E06D1C00F011F835B12878A7
:1005F0000028F8D102E0641C00F009F814B120785A
:100600000028F8D1BDE870400A20AFF3008008B59B
:1006100069468DF800000320ABBE08BDFFE7FEE78A
:1006200080B540F29800C2F2000000F043F980BDAE
:1006300082B001900198007810384AF6AB21CAF6D2
:10064000AA21A0FB011000090090009947F6C6708E
:10065000C0F60000405C0199C8650098042807D3E3
:10066000FFE701990868042262F30900886506E043
:100670000199086840F2FF3290438865FFE70198CE
:10068000806D02B07047000086B0059000208DF8A4
:1006900013000598806A03900598806910BBFFE7F6
:1006A0000398029003281BD80299DFE801F0020D9D
:1006B0000218059890F82F00C00720B1FFE701202D
:1006C0008DF81300FFE70CE00598C06AB0F1C07F19
:1006D00004D1FFE701208DF81300FFE701E000E0FF
:1006E000FFE745E005988069B0F5005F25D1FFE799
:1006F0000398019003281ED80199DFE801F0020653
:10070000021101208DF8130016E0059890F82F00D3
:10071000C00720B1FFE701208DF81300FFE70BE0D1
:100720000598C06AB0F1C07F04D1FFE701208DF8C1
:100730001300FFE700E0FFE719E0039800900328AB
:1007400004D3FFE70098032804D00EE001208DF8C1
:1007500013000BE0059890F82F00C00720B1FFE7C9
:1007600001208DF81300FFE700E0FFE7FFE7FFE758
:100770009DF8130006B070477047000072B6FFE79F
:10078000FEE7000080B584B002900298806D019071
:1007900000F0CCFC0090029890F8350002280DD0B3
:1007A000FFE7029980204865FFE70299002081F861
:1007B0003400FFE701208DF80F0055E00298016832
:1007C000086820F01600086002980168486920F067
:1007D000800048610298006C20B9FFE70298806CA5
:1007E00038B1FFE702980168086820F00800086047
:1007F000FFE702980168086820F001000860FFE741
:10080000029800680068C007C8B1FFE700F08EFCDE
:100810000099401A062811D3FFE702992020486565
:100820000299032081F83500FFE70299002081F842
:100830003400FFE703208DF80F0015E0E0E7029891
:10084000C16D3F208840019988600299012081F89C
:100850003500FFE70299002081F83400FFE7FFE749
:1008600000208DF80F00FFE79DF80F0004B080BD59
:1008700082B00090009890F83500022807D0FFE77A
:1008800000998020486501208DF807000EE000994E
:10089000052081F8350000980168086820F0010003
:1008A0000860FFE700208DF80700FFE79DF80700CC
:1008B00002B0704780B586B005900020039040F2EA
:1008C0000000C2F20000006848F2B511C1F64E31D6
:1008D000A0FB0110800A02900598806D019001989C
:1008E0000068049004980599C96DC8400007002865
:1008F0001AD5FFE70598006800684007002812D560
:10090000FFE705980168086820F004000860059872
:10091000C16D08208840019988600599486D40F0B4
:1009200001004865FFE7FFE704980599C96DC840D5
:10093000C007A0B1FFE705980068406900060028DD
:100940000CD5FFE70598C16D0120884001998860AA
:100950000599486D40F002004865FFE7FFE70498FD
:100960000599C96DC8404007002814D5FFE70598D0
:1009700000680068800700280CD5FFE70598C16D66
:1009800004208840019988600599486D40F0040072
:100990004865FFE7FFE704980599C96DC840C006A0
:1009A000002847D5FFE70598006800680007002881
:1009B0003FD5FFE70598C16D1020884001998860F8
:1009C000059800680068400300281AD5FFE70598DD
:1009D000006800680003002809D4FFE70598006C50
:1009E00020B1FFE70598016C8847FFE708E005980C
:1009F000806C20B1FFE70598816C8847FFE7FFE72F
:100A000016E0059800680068C005002807D4FFE7D5
:100A100005980168086820F008000860FFE705985D
:100A2000006C20B1FFE70598016C8847FFE7FFE7FE
:100A3000FFE7FFE704980599C96DC84080060028C4
:100A400040F18D80FFE7059800680068C006002827
:100A500040F18480FFE70598C16D2020884001990E
:100A60008860059890F83500052834D1FFE705988F
:100A70000168086820F01600086005980168486958
:100A800020F0800048610598006C20B9FFE70598C8
:100A9000806C38B1FFE705980168086820F008000D
:100AA0000860FFE70598C16D3F2088400199886084
:100AB0000599012081F83500FFE70599002081F8AC
:100AC0003400FFE70598006D20B1FFE70598016D40
:100AD0008847FFE77BE0059800680068400300282E
:100AE0001AD5FFE70598006800680003002809D4BC
:100AF000FFE70598406C20B1FFE70598416C8847F7
:100B0000FFE708E00598C06B20B1FFE70598C16BCF
:100B10008847FFE7FFE720E0059800680068C00508
:100B2000002811D4FFE705980168086820F010003C
:100B300008600599012081F83500FFE7059900203C
:100B400081F83400FFE7FFE70598C06B20B1FFE7AD
:100B50000598C16B8847FFE7FFE7FFE7FFE70598C8
:100B6000406DA0B3FFE70598406DC00730B3FFE7C5
:100B70000599052081F8350005980168086820F07E
:100B800001000860FFE70398013003900299884252
:100B900001D9FFE707E0FFE7059800680068C00794
:100BA0000028F0D1FFE70599012081F83500FFE723
:100BB0000599002081F83400FFE7FFE70598C06C35
:100BC00020B1FFE70598C16C8847FFE7FFE706B053
:100BD00080BD000080B586B004900020039000F036
:100BE000A5FA0290049820B9FFE701208DF81700BC
:100BF000A3E00498406A08B1FFE7FFE704990220E8
:100C000081F83500FFE70499002081F83400FFE700
:100C100004980168086820F001000860FFE7049864
:100C200000680068C00790B1FFE700F07FFA029902
:100C3000401A06280AD3FFE7049920204865049942
:100C4000032081F835008DF8170076E0E7E7049877
:100C5000006800680390039848F23F01CFF210014A
:100C600008400390049900914868D1F808C0CB6807
:100C70000A6940EA0C00184310434A6910438A6924
:100C80001043CA691043096A01430398084303905B
:100C90000498406A042808D1FFE70499C86A096BE0
:100CA0000143039808430390FFE7039804990968F8
:100CB00008600498006840690390039820F00700DA
:100CC00003900498416A0398084303900498406A8B
:100CD00004281AD1FFE70498816A03980843039017
:100CE0000498C06A80B1FFE70498FFF7CDFC50B1CB
:100CF000FFE70499402048650499012081F83500F8
:100D00008DF8170019E0FFE7FFE7039804990968D9
:100D100048610498FFF78CFC01900498C16D3F2056
:100D2000884001998860049900204865049A01214F
:100D300082F835108DF81700FFE79DF8170006B010
:100D400080BD00008EB00D900C9100200A9009909B
:100D500008900B90FFE70B980F2800F2CC81FFE77B
:100D60000B99012088400A900C9800680A99084065
:100D7000099009980A99884240F0B881FFE70C98D9
:100D8000406800F00300012807D0FFE70C98406896
:100D900000F0030002282FD1FFE70D98806808902B
:100DA0000B984100032000FA01F10898884308904D
:100DB0000C98C0680B99490000FA01F108980843A3
:100DC000089008980D9988600D98406808900B99D4
:100DD000012000FA01F10898884308900C984068B7
:100DE000C0F300100B9900FA01F10898084308902D
:100DF00008980D994860FFE70C98406800F00300E0
:100E0000032818D0FFE70D98C06808900B984100A0
:100E1000032000FA01F10898884308900C98806834
:100E20000B99490000FA01F10898084308900898C6
:100E30000D99C860FFE70C98406800F00300022895
:100E400026D1FFE70D980B996FF0030202EA5101DA
:100E50000844006A08900B9800F0070081000F20FA
:100E600000FA01F10898884308900C9800690B99E2
:100E700001F00701890000FA01F108980843089081
:100E800008980D990B9B02EA530211440862FFE790
:100E90000D98006808900B984100032000FA01F1BA
:100EA0000898884308900C98406800F003000B995C
:100EB000490000FA01F108980843089008980D9934
:100EC00008600C9880798007002800F00E81FFE709
:100ED000FFE70020079043F64400C4F202000168D7
:100EE00041F480410160006800F480400790079859
:100EF000FFE70B9820F0030043F60801C4F201015C
:100F0000405808900B9800F0030081000F2000FA71
:100F100001F10898884308900D980021C4F202015D
:100F2000884203D1FFE7002006905EE00D9840F272
:100F30000041C4F20201884203D1FFE7012005907D
:100F400050E00D9840F60001C4F20201884203D13E
:100F5000FFE70220049042E00D9840F60041C4F201
:100F60000201884203D1FFE70320039034E00D988B
:100F700041F20001C4F20201884203D1FFE70420DC
:100F8000029026E00D9841F20041C4F2020188422D
:100F900003D1FFE70520019018E00D9841F600010C
:100FA000C4F20201884203D1FFE7062000900AE064
:100FB0000D9941F60042C4F202020820914208BF96
:100FC00007200090FFE700980190FFE7019802904A
:100FD000FFE702980390FFE703980490FFE7049867
:100FE0000590FFE705980690FFE70698C0B20B99B9
:100FF00001F00301890000FA01F108980843089004
:1010000008980B9921F0030143F60802C4F201028B
:10101000885043F60840C4F201000068089009991E
:101020000898884308900C988079C006002805D558
:10103000FFE70999089808430890FFE7089843F6E6
:101040000841C4F20101086043F60C40C4F20100FB
:101050000068089009990898884308900C9880794E
:101060008006002805D5FFE70999089808430890ED
:10107000FFE7089843F60C41C4F20101086043F60B
:101080000440C4F201000068089009990898884358
:1010900008900C9880798007002805D5FFE709990A
:1010A000089808430890FFE7089843F60441C4F203
:1010B0000101086043F60040C4F201000068089096
:1010C00009990898884308900C988079C00728B13E
:1010D000FFE70999089808430890FFE7089843F646
:1010E0000041C4F201010860FFE7FFE7FFE70B984A
:1010F00001300B902FE60EB07047000082B00190D7
:10110000ADF802108DF801209DF8010028B1FFE72D
:10111000BDF802000199886105E0BDF802000004F5
:1011200001998861FFE702B07047000044F2C450A3
:10113000C2F200000068704740F20400C2F20000F2
:10114000027844F2C451C2F20001086810440860F9
:101150007047000080B543F60041C4F20201086800
:1011600040F400700860086840F480600860086817
:1011700040F480700860032000F090F80F2000F029
:1011800005F800F03BF8002080BD000080B582B07B
:10119000009040F20000C2F20000006840F204013A
:1011A000C2F200010A784FF47A71B1FBF2F1B0FBA0
:1011B000F1F000F075FE20B1FFE701208DF8070087
:1011C00018E000980F280DD8FFE700994FF0FF3086
:1011D000002200F049F8009840F20801C2F2000134
:1011E000086003E001208DF8070003E000208DF87F
:1011F0000700FFE79DF8070002B080BD80B582B010
:10120000FFE70020019043F64400C4F202000168A9
:1012100041F480410160006800F480400190019831
:10122000FFE7FFE70020009043F64000C4F2020011
:10123000016841F080510160006800F0805000902A
:101240000098FFE76FF001000F21002200F00CF87A
:1012500002B080BD80B582B08DF807009DF907000F
:1012600003F03EFD02B080BD80B586B08DF817005A
:10127000049103920020029003F04AFD02909DF930
:101280001700019002980499039A02F08DFC014620
:10129000019803F045FD06B080BD000080B582B026
:1012A0000190019803F080FD02B080BD80B584B04C
:1012B00002900191029820B9FFE701208DF80F00FC
:1012C00021E1019843F60041C4F20201096801F0EE
:1012D0000701884212D9FFE7019943F60040C4F2A2
:1012E00002000170006800F007000199884204D0F4
:1012F000FFE701208DF80F0005E1FFE70298007875
:10130000800700282AD5FFE70298007840070028C8
:1013100009D5FFE743F60801C4F20201086840F46A
:10132000E0500860FFE7029800780007002809D520
:10133000FFE743F60801C4F20201086840F4604088
:101340000860FFE743F60801C4F20201086820F0D4
:10135000F000029A926810430860FFE70298007854
:10136000C00700286ED0FFE702984068012811D11D
:10137000FFE743F60000C4F20200006800F4003109
:101380000020B0EB514F04D1FFE701208DF80F0092
:10139000B9E02CE002984068022805D0FFE70298E7
:1013A0004068032811D1FFE743F60000C4F20200B1
:1013B000006800F000710020B0EB516F04D1FFE72E
:1013C00001208DF80F009EE010E043F60000C4F20B
:1013D0000200006800F002010020B0EB510F04D1C0
:1013E000FFE701208DF80F008DE0FFE7FFE743F6F0
:1013F0000801C4F20201086820F00300029A526852
:1014000010430860FFF792FE0090FFE743F60800E4
:10141000C4F20200006800F00C0002994968B0EBC9
:10142000810F0ED0FFE7FFF781FE0099401A41F2CD
:101430008931884204D3FFE703208DF80F0062E072
:10144000E4E7FFE7019843F60041C4F202010968AE
:1014500001F00701884212D2FFE7019943F60040EC
:10146000C4F202000170006800F007000199884290
:1014700004D0FFE701208DF80F0044E0FFE7029859
:101480000078400700280CD5FFE743F60801C4F2B6
:101490000201086820F4E050029AD2681043086004
:1014A000FFE702980078000700280DD5FFE743F614
:1014B0000801C4F20201086820F46040029A12692F
:1014C00040EAC2000860FFE700F04CF843F608016C
:1014D000C4F202010968C9B20A0947F6AE71C0F642
:1014E0000001895CC84040F20001C2F200010860BE
:1014F00040F20800C2F200000068FFF747FE00203B
:101500008DF80F00FFE79DF80F0004B080BD0000CC
:1015100040F20000C2F200000068704780B5FFF79B
:10152000F7FF43F60801C4F202010968C1F3822201
:1015300047F6BE71C0F60001895CC84080BD00005E
:1015400080B5FFF7E5FF43F60801C4F20201096820
:1015500089B24A0B47F6BE71C0F60001895CC840EB
:1015600080BD000080B586B00020059004900390F7
:10157000029043F60800C4F20200006800F00C007C
:101580000146019140B1FFE7019804280AD0FFE726
:10159000019808280CD04FE042F20040C0F2F4005D
:1015A00002904FE043F20060C0F26E10029049E0FA
:1015B00043F60400C4F20200016801F03F01059106
:1015C00000684002002813D5FFE743F60400C4F288
:1015D00002000068C0F3881043F20061C0F26E118F
:1015E000A0FB0101059A0023FEF756FE049012E0CD
:1015F00043F60400C4F202000068C0F3881042F20F
:101600000041C0F2F401A0FB0101059A0023FEF79E
:1016100043FE0490FFE743F60400C4F202000068B2
:1016200000F44031022000EBD1300390049803997C
:10163000B0FBF1F0029005E042F20040C0F2F4008D
:101640000290FFE7029806B080BD000080B586B02A
:101650000490049820B9FFE701208DF8170050E3AB
:1016600004980078C007002800F0A580FFE743F643
:101670000800C4F20200006800F00C00042813D037
:10168000FFE743F60800C4F20200006800F00C0017
:1016900008281ED1FFE743F60400C4F202000068E8
:1016A0004002002815D5FFE743F60000C4F202000F
:1016B000006800F400310020B0EB514F08D0FFE784
:1016C0000498406820B9FFE701208DF8170018E35F
:1016D00070E0FFE704984068B0F5803F09D1FFE76C
:1016E00043F60001C4F20201086840F4803008604B
:1016F00020E004984068B0F5A02F0DD1FFE743F635
:101700000001C4F20201086840F480200860086803
:1017100040F4803008600CE043F60001C4F202019E
:10172000086820F480300860086820F48020086091
:10173000FFE7FFE7FFE704984068E8B1FFE7FFF73E
:10174000F5FC0390FFE743F60000C4F202000068D6
:1017500000F400310020B0EB514F0CD1FFE7FFF750
:10176000E5FC0399401A652804D3FFE703208DF8B0
:101770001700C6E2E7E71CE0FFF7D8FC0390FFE79D
:1017800043F60000C4F20200006800F400310020BB
:10179000B0EB514F0CD0FFE7FFF7C8FC0399401A9C
:1017A000652804D3FFE703208DF81700A9E2E7E7D7
:1017B000FFE7FFE7FFE7049800788007002840F183
:1017C0009680FFE743F60800C4F20200006810F0BC
:1017D0000C0F13D0FFE743F60800C4F202000068C4
:1017E00000F00C0008282CD1FFE743F60400C4F2F7
:1017F000020000684002002823D4FFE743F60000FF
:10180000C4F20200006800F002010020B0EB510FAA
:1018100009D0FFE70498C068012804D0FFE7012041
:101820008DF817006DE243F60001C4F2020108686A
:1018300020F0F800049A126940EAC2000860FFE74D
:1018400054E00498C06870B3FFE70021C4F2472158
:1018500001200860FFF76AFC0390FFE743F60000F1
:10186000C4F20200006800F002010020B0EB510F4A
:101870000CD1FFE7FFF75AFC0399401A032804D361
:10188000FFE703208DF817003BE2E7E743F600018E
:10189000C4F20201086820F0F800049A126940EAD4
:1018A000C200086021E00021C4F247210020086046
:1018B000FFF73CFC0390FFE743F60000C4F2020090
:1018C000006800F002010020B0EB510F0CD0FFE7E0
:1018D000FFF72CFC0399401A032804D3FFE70320E9
:1018E0008DF817000DE2E7E7FFE7FFE7FFE7049851
:1018F0000078000700284BD5FFE70498406918B32B
:10190000FFE740F68061C4F2472101200860FFF73D
:101910000DFC0390FFE743F67400C4F20200006878
:1019200000F002010020B0EB510F0CD1FFE7FFF7F0
:10193000FDFB0399401A032804D3FFE703208DF829
:101940001700DEE1E7E722E040F68061C4F24721BC
:1019500000200860FFF7EAFB0390FFE743F67400FE
:10196000C4F20200006800F002010020B0EB510F49
:101970000CD0FFE7FFF7DAFB0399401A032804D3E2
:10198000FFE703208DF81700BBE1E7E7FFE7FFE77C
:10199000049800784007002840F1CE80FFE700203F
:1019A0008DF8070043F64000C4F202000068C00052
:1019B000002815D4FFE7FFE70020009043F6400021
:1019C000C4F20200016841F080510160006800F03B
:1019D000805000900098FFE701208DF80700FFE796
:1019E00047F20000C4F200000068C005002822D4BD
:1019F000FFE747F20001C4F20001086840F480707C
:101A00000860FFF793FB0390FFE747F20000C4F282
:101A100000000068C00500280CD4FFE7FFF786FB34
:101A20000399401A032804D3FFE703208DF8170019
:101A300067E1EAE7FFE7FFE704988068012809D13A
:101A4000FFE743F67001C4F20201086840F00100AC
:101A500008601FE00498806805280DD1FFE743F671
:101A60007001C4F20201086840F0040008600868D0
:101A700040F0010008600CE043F67001C4F202017E
:101A8000086820F001000860086820F00400086081
:101A9000FFE7FFE7FFE704988068F8B1FFE7FFF78B
:101AA00045FB0390FFE743F67000C4F202000068B4
:101AB00000F002010020B0EB510F0ED1FFE7FFF75D
:101AC00035FB0399401A41F28931884204D3FFE77C
:101AD00003208DF8170014E1E5E71EE0FFF726FB71
:101AE0000390FFE743F67000C4F20200006800F0C4
:101AF00002010020B0EB510F0ED0FFE7FFF716FBFD
:101B00000399401A41F28931884204D3FFE7032048
:101B10008DF81700F5E0E5E7FFE79DF807000128DD
:101B200009D1FFE743F64001C4F20201086820F042
:101B300080500860FFE7FFE704988069002800F004
:101B4000DC80FFE743F60800C4F20200006800F002
:101B50000C00082800F08580FFE7049880690228BF
:101B60005CD1FFE76021C4F2472100200860FFF745
:101B7000DDFA0390FFE743F60000C4F202000068BC
:101B800000F000710020B0EB516F0CD0FFE7FFF7C1
:101B9000CDFA0399401A032804D3FFE703208DF8F8
:101BA0001700AEE0E7E70499C869D1F820C04B6A96
:101BB0008A6A40EA0C0040EA8310D2034FF6FF73B2
:101BC0009A43A2F580321043C96A40EA016043F6A5
:101BD0000401C4F2020108606021C4F2472101201F
:101BE0000860FFF7A3FA0390FFE743F60000C4F292
:101BF0000200006800F000710020B0EB516F0CD1C2
:101C0000FFE7FFF793FA0399401A032804D3FFE78D
:101C100003208DF8170074E0E7E721E06021C4F2AB
:101C2000472100200860FFF781FA0390FFE743F6A1
:101C30000000C4F20200006800F000710020B0EB68
:101C4000516F0CD0FFE7FFF771FA0399401A032890
:101C500004D3FFE703208DF8170052E0E7E7FFE722
:101C60004AE004988069012804D1FFE701208DF83B
:101C7000170046E043F60400C4F202000068029038
:101C800004988069012831D0FFE7029800F48000B1
:101C90000499C969884229D1FFE7029800F03F0002
:101CA0000499096A884221D1FFE7029847F6C0717A
:101CB00008400499496AB0EB811F17D1FFE70298E9
:101CC00000F440300499896AC9034FF6FF729143CA
:101CD000A1F58031884209D1FFE7029800F07060D9
:101CE0000499C96AB0EB016F04D0FFE701208DF8B9
:101CF000170006E0FFE7FFE7FFE700208DF8170079
:101D0000FFE79DF8170006B080BD000080B584B0E5
:101D10000290029820B9FFE701208DF80F0072E0D1
:101D20000298406A60B9FFE702984068B0F5827F88
:101D300001D1FFE703E002990020C861FFE705E059
:101D400002990020086102994861FFE7029900208A
:101D50008862029890F8510040B9FFE7029900208C
:101D600081F85000029800F053F8FFE70299022032
:101D700081F8510002980168086820F0400008606E
:101D8000029A019211685068D2F808C0D36800F432
:101D900082700CF4044C604403F40063184413692B
:101DA00003F002031844536903F0010318449369D4
:101DB00003F400731844D36903F038031844136A1A
:101DC00003F080031843926A02F400521043086043
:101DD000029801688369426A042000EA134002F015
:101DE00010021044486002980168C86920F400603D
:101DF000C861029900204865029A012182F85110B9
:101E00008DF80F00FFE79DF80F0004B080BD0000C3
:101E100080B588B00790002006900590049003904C
:101E200002900798006843F60041C4F2000188421E
:101E300034D1FFE7FFE70020019043F64000C4F2F1
:101E40000200016841F400410160006800F40040B4
:101E500001900198FFE7FFE70020009043F6300073
:101E6000C4F20200016841F002010160006800F064
:101E7000020000900098FFE73820029002200390B3
:101E800000200490032005900620069040F20040B8
:101E9000C4F2020002A9FEF755FFFFE708B080BDBB
:101EA00080B582B00190019801F03CFF02B080BD86
:101EB00081B0009001B0704781B0009001B07047D0
:101EC00084B00290019100200090FFE7029890F802
:101ED0003C00012804D1FFE702208DF80F0044E008
:101EE0000299012081F83C00FFE7FFE7009820F00D
:101EF000FF000199C96808430090009820F44070E1
:101F00000199896808430090009820F48060019945
:101F1000496808430090009820F40060019909681E
:101F200008430090009820F4805001990969084303
:101F30000090009820F400500199496908430090EE
:101F4000009820F480400199C969084300900098E6
:101F5000029909684864FFE70299002081F83C0073
:101F6000FFE700208DF80F00FFE79DF80F0004B099
:101F70007047000085B003900291FFE7039890F846
:101F80003C00012804D1FFE702208DF813007EE019
:101F90000399012081F83C00FFE7FFE70399022045
:101FA00081F83D000398006840680190039800683C
:101FB00080680090019820F07000019002980168FC
:101FC00001980843019001980399096848600398B3
:101FD00000680021C4F2010188423CD0FFE7039869
:101FE0000068B0F1804F36D0FFE70398006840F2F8
:101FF0000041C4F2000188422DD0FFE70398006839
:1020000040F60001C4F20001884224D0FFE70398A3
:10201000006840F60041C4F2000188421BD0FFE78F
:102020000398006840F20041C4F20101884212D0D6
:10203000FFE70398006844F20001C4F201018842FE
:1020400009D0FFE70398006841F60001C4F20001DF
:1020500088420ED1FFE7009820F08000009002989F
:1020600041680098084300900098039909688860C7
:10207000FFE70399012081F83D00FFE70399002065
:1020800081F83C00FFE700208DF81300FFE79DF882
:10209000130005B07047000080B582B00090009832
:1020A00020B9FFE701208DF807003FE0009890F885
:1020B0003D0040B9FFE70099002081F83C000098FE
:1020C00000F038F8FFE70099022081F83D00009900
:1020D00051F8040B01F0E8FE0099012081F8460058
:1020E000FFE70099012081F83E00009981F83F0048
:1020F000009981F84000009981F84100FFE7FFE76F
:102100000099012081F84200009981F8430000996C
:1021100081F84400009981F84500FFE7009901200B
:1021200081F83D0000208DF80700FFE79DF80700CB
:1021300002B080BD80B586B005900598006841F674
:102140000001C4F2000188421BD1FFE7FFE7002035
:10215000049043F64000C4F20200016841F04001DF
:102160000160006800F0400004900498FFE72B2015
:10217000029005210022FFF777F80298FFF76AF82E
:1021800024E00598006841F60041C4F2000188424D
:102190001BD1FFE7FFE70020039043F64000C4F2A5
:1021A0000200016841F080010160006800F08000D9
:1021B00003900398FFE72C20019005210022FFF7F0
:1021C00053F80198FFF746F8FFE7FFE706B080BD38
:1021D00083B00190019890F83D00012804D0FFE7FA
:1021E00001208DF80B006AE00199022081F83D0082
:1021F00001980168C86840F00100C8600198006853
:102200000021C4F2010188423CD0FFE70198006838
:10221000B0F1804F36D0FFE70198006840F20041EE
:10222000C4F2000188422DD0FFE70198006840F613
:102230000001C4F20001884224D0FFE70198006841
:1022400040F60041C4F2000188421BD0FFE701982C
:10225000006840F20041C4F20101884212D0FFE759
:102260000198006844F20001C4F20101884209D0DB
:10227000FFE70198006841F60001C4F200018842BE
:1022800012D1FFE701980068806800F00700009015
:102290000098062807D0FFE701980168086840F019
:1022A00001000860FFE706E001980168086840F057
:1022B00001000860FFE700208DF80B00FFE79DF8A4
:1022C0000B0003B07047000080B586B00490039106
:1022D00000208DF80B00FFE7049890F83C000128DF
:1022E00004D1FFE702208DF81700ABE0049901202C
:1022F00081F83C00FFE7FFE70499022081F83D00E8
:102300000498006880680190019820F0770001909F
:10231000019820F47F400190019804990968886031
:10232000039800680090002872D0FFE700981028FA
:102330006ED0FFE7009820286AD0FFE70098302889
:1023400066D0FFE70098402855D0FFE70098502856
:1023500037D0FFE70098602840D0FFE7009870284A
:102360000BD0FFE70098B0F5805F05D0FFE700983D
:10237000B0F5005F16D052E055E004980068039B6A
:102380005A689968DB6801F07DFE049800688068EF
:102390000190019840F07700019001980499096834
:1023A000886040E004980068039B5A689968DB687D
:1023B00001F068FE04980168886840F480408860F5
:1023C00031E004980068039A5168D26802F046F838
:1023D00004980068502101F06FFE24E00498006822
:1023E000039A5168D26802F061F80498006860218D
:1023F00001F062FE17E004980068039A5168D26801
:1024000002F02CF804980068402101F055FE0AE023
:10241000049800680399096801F04EFE03E001206A
:102420008DF80B00FFE70499012081F83D00FFE7DC
:102430000499002081F83C00FFE79DF80B008DF81F
:102440001700FFE79DF8170006B080BD80B586B085
:1024500004900391049820B9FFE701208DF817003C
:1024600088E0049890F83D0040B9FFE70499002007
:1024700081F83C00049800F081F8FFE704990220FD
:1024800081F83D0004980168886844F2070290438F
:102490008860049951F8040B01F006FD0498006867
:1024A0008068029004980068806901900498006830
:1024B000006A00900398016802980843029001980E
:1024C00040F203318843019003998868896940EAA2
:1024D0000121019808430190019840F60C4188437E
:1024E000019001984FF2F001884301900399C86868
:1024F000C96940EA012101980843019003990869DC
:10250000096A000140EA01310198084301900098EE
:1025100020F022000090009820F08800009003999D
:102520004868496940EA0111009808430090029800
:10253000049909688860019804990968886100987D
:102540000499096808620499012081F846000499F9
:1025500081F83E00049981F83F00049981F8420017
:10256000049981F84300049981F83D0000208DF81A
:102570001700FFE79DF8170006B080BD80B58AB050
:102580000990002008900790069005900490099803
:102590000068B0F1804F32D1FFE7FFE700200390E1
:1025A00043F64000C4F20200016841F001010160FD
:1025B000006800F0010003900398FFE7FFE70020A8
:1025C000029043F63000C4F20200016841F00101BC
:1025D0000160006800F0010002900298FFE703200C
:1025E000049002200590002006900790012008909A
:1025F0000020C4F2020004A9FEF7A4FB3BE0099806
:10260000006840F20041C4F20001884232D1FFE785
:10261000FFE70020019043F64000C4F20200016889
:1026200041F002010160006800F002000190019891
:10263000FFE7FFE70020009043F63000C4F20200FD
:10264000016841F004010160006800F0040000909E
:102650000098FFE7C0200490022005900021069119
:102660000791089040F60000C4F2020004A9FEF7AA
:1026700069FBFFE7FFE70AB080BD000080B586B0C8
:1026800004900391049890F83E008DF80B00049894
:1026900090F83F008DF80A00049890F842008DF8F9
:1026A0000900049890F843008DF808000398B8B921
:1026B000FFE79DF80B00012805D1FFE79DF8090011
:1026C000012804D0FFE701208DF8170079E0049974
:1026D000022081F83E00049981F84200FFE742E0C1
:1026E0000398042817D1FFE79DF80A00012805D1B7
:1026F000FFE79DF80800012804D0FFE701208DF8CE
:1027000017005EE00499022081F83F00049981F8E7
:102710004300FFE726E09DF80B0001280FD1FFE7FB
:102720009DF80A0001280AD1FFE79DF80900012859
:1027300005D1FFE79DF80800012804D0FFE701203C
:102740008DF817003DE00499022081F83E000499BD
:1027500081F83F00049981F84200049981F8430010
:10276000FFE7FFE7FFE70398019020B1FFE701983B
:10277000042807D00DE0049800680021012201F030
:1027800065FC14E0049800680421012201F05EFC5D
:102790000DE00498006800210122009201F056FC2F
:1027A000009A04980068042101F050FCFFE70498A7
:1027B0000168086840F00100086000208DF81700EB
:1027C000FFE79DF8170006B080BD000081B00090C3
:1027D00001B0704780B584B0039003980068C0686A
:1027E000029003980068006901909DF8040080073A
:1027F000002824D5FFE79DF80800800700281DD594
:10280000FFE7039801686FF0020008610399012057
:102810000877039800688069800720B1FFE7039874
:10282000FFF7D4FF06E0039800F01AF9039800F0D0
:1028300049FAFFE7039900200877FFE7FFE79DF8D3
:1028400004004007002825D5FFE79DF80800400751
:1028500000281ED5FFE7039801686FF004000861A7
:1028600003990220087703980068806910F4407F7C
:1028700004D0FFE70398FFF7A9FF06E0039800F0F4
:10288000EFF8039800F01EFAFFE70399002008779D
:10289000FFE7FFE79DF804000007002824D5FFE7C5
:1028A0009DF80800000700281DD5FFE70398016880
:1028B0006FF0080008610399042008770398006806
:1028C000C069800720B1FFE70398FFF77FFF06E0AC
:1028D000039800F0C5F8039800F0F4F9FFE70399B6
:1028E00000200877FFE7FFE79DF80400C0060028F6
:1028F00025D5FFE79DF80800C00600281ED5FFE794
:10290000039801686FF010000861039908200877A8
:1029100003980068C06910F4407F04D0FFE7039873
:10292000FFF754FF06E0039800F09AF8039800F0D0
:10293000C9F9FFE7039900200877FFE7FFE79DF853
:102940000400C00778B1FFE79DF80800C00748B150
:10295000FFE7039801686FF001000861039800F039
:102960009BFAFFE7FFE79DF804000006002810D55A
:10297000FFE79DF808000006002809D5FFE7039847
:1029800001686FF0800008610398FFF791FAFFE794
:10299000FFE79DF804004006002810D5FFE79DF8EA
:1029A00008004006002809D5FFE7039801686FF08A
:1029B00040000861039800F0B9FAFFE7FFE79DF8CF
:1029C00004008006002810D5FFE79DF80800800667
:1029D000002809D5FFE7039801686FF0200008611F
:1029E0000398FFF769FAFFE7FFE704B080BD000036
:1029F00080B588B007900020069005900490039061
:102A000002900798006840F20041C4F20101884238
:102A100023D1FFE7FFE70020019043F63000C4F226
:102A20000200016841F004010160006800F0040048
:102A300001900198FFE74FF440700290022003904C
:102A40000020049005900320069040F60000C4F298
:102A5000020002A9FEF776F9FFE708B080BD00008A
:102A600081B0009001B0704780B586B004900391AA
:102A7000029200208DF80700FFE7049890F83C00D0
:102A8000012804D1FFE702208DF8170089E004999E
:102A9000012081F83C00FFE7FFE7029800900C2836
:102AA00000F270800099DFE801F0076D6D6D206D18
:102AB0006D6D3A6D6D6D530004980068039901F0D7
:102AC00011FB04980168886940F008008861049847
:102AD0000168886920F004008861039802690498FD
:102AE000016888691043886150E004980068039980
:102AF00001F06EFB04980168886940F40060886109
:102B000004980168886920F48060886103980269EC
:102B100004980168886940EA0220886136E00498D8
:102B20000068039901F0CEFB04980168C86940F081
:102B30000800C86104980168C86920F00400C861F1
:102B40000398026904980168C8691043C8611DE0D0
:102B500004980068039901F02FFC04980168C86983
:102B600040F40060C86104980168C86920F480607E
:102B7000C8610398026904980168C86940EA0220A4
:102B8000C86103E001208DF80700FFE7FFE7049923
:102B9000002081F83C00FFE79DF807008DF8170042
:102BA000FFE79DF8170006B080BD000080B582B039
:102BB0000090009820B9FFE701208DF807003FE062
:102BC000009890F83D0040B9FFE70099002081F897
:102BD0003C00009800F038F8FFE70099022081F8E7
:102BE0003D00009951F8040B01F05EF900990120B5
:102BF00081F84600FFE70099012081F83E00009926
:102C000081F83F00009981F84000009981F8410067
:102C1000FFE7FFE70099012081F84200009981F861
:102C20004300009981F84400009981F84500FFE7CE
:102C30000099012081F83D0000208DF80700FFE792
:102C40009DF8070002B080BD80B588B00790079856
:102C5000006840F20041C4F2010188422FD1FFE731
:102C6000FFE70020069043F64400C4F2020001682A
:102C700041F002010160006800F002000690069831
:102C8000FFE72B2001900521039100220492FEF71B
:102C9000EBFA0198FEF7DEFA0399049A2C200290D1
:102CA000FEF7E2FA0298FEF7D5FA0399049A2D206E
:102CB0000590FEF7D9FA0598FEF7CCFAFFE708B0C1
:102CC00080BD000081B0009001B0704780B58CB02D
:102CD0000A900991099828B9FFE70A9890F83E00F0
:102CE00007901CE00998042805D1FFE70A9890F89E
:102CF0003F00069010E00998082805D1FFE70A98E0
:102D000090F84000059004E00A9890F84100059082
:102D1000FFE705980690FFE706980790FFE70798FA
:102D2000012804D0FFE701208DF82F00AFE00998BB
:102D300028B9FFE70A99022081F83E001EE00998B1
:102D4000042806D1FFE70A99022081F83F00049089
:102D500012E00998082806D1FFE70A99022081F8B5
:102D60004000039005E00A99022081F84100039099
:102D7000FFE703980490FFE70498FFE70A980068CC
:102D800009990122019201F061F901980A990968F3
:102D90000022C4F20102914202900CD0FFE70A988F
:102DA00000684FF60041CBF6FE710844B0FA80F09F
:102DB00040090290FFE70298C00738B1FFE70A9880
:102DC0000168486C40F400404864FFE70A980068D6
:102DD0000021C4F2010188423CD0FFE70A98006854
:102DE000B0F1804F36D0FFE70A98006840F200410A
:102DF000C4F2000188422DD0FFE70A98006840F62F
:102E00000001C4F20001884224D0FFE70A9800685C
:102E100040F60041C4F2000188421BD0FFE70A9847
:102E2000006840F20041C4F20101884212D0FFE77D
:102E30000A98006844F20001C4F20101884209D0F6
:102E4000FFE70A98006841F60001C4F200018842D9
:102E500012D1FFE70A980068806800F00700089028
:102E60000898062807D0FFE70A980168086840F02C
:102E700001000860FFE706E00A980168086840F072
:102E800001000860FFE700208DF82F00FFE79DF8A4
:102E90002F000CB080BD000080B584B00390039873
:102EA00040F29811C2F2000188420DD1FFE740F2D2
:102EB0000030C2F2000001F069FE40F2A430C2F21C
:102EC000000001F063FEFFE7039840F25011C2F2E8
:102ED0000001884227D1FFE740F20030C2F2000033
:102EE000019090ED0B0AD0ED0C0A343002F0A2F9FB
:102EF0000198BDEEC00A10EE101A01F0CBFD40F2B1
:102F0000A430C2F20000029090ED0B0AD0ED0C0A42
:102F1000343002F08FF90298BDEEC00A10EE101A9C
:102F200001F0B8FDFFE704B080BD000081B0009063
:102F300001B0704782B00190ADF8021002B0704746
:102F400081B0009001B0704780B592B01190119897
:102F500000680068109011980068C0680F90119880
:102F6000006840690E9000200D900C90109800F0C1
:102F70000F000D900D9888B9FFE79DF8400080067E
:102F800000280AD5FFE79DF83C008006002804D5FC
:102F9000FFE7119801F020FB02E2FFE70D980028FF
:102FA00000F0C280FFE79DF83800C00738B9FFE79E
:102FB000BDF83C0010F4907F00F0B680FFE79DF86C
:102FC0004000C00758B1FFE79DF83D00C00730B191
:102FD000FFE71199486C40F001004864FFE79DF855
:102FE0004000400700280BD5FFE79DF83800C007D8
:102FF00030B1FFE71199486C40F002004864FFE7E8
:103000009DF84000800700280BD5FFE79DF83800A9
:10301000C00730B1FFE71199486C40F004004864E4
:10302000FFE79DF840000007002811D5FFE79DF855
:103030003C008006002805D4FFE79DF83800C00753
:1030400030B1FFE71199486C40F008004864FFE791
:103050001198406C002866D0FFE79DF8400080067C
:1030600000280AD5FFE79DF83C008006002804D51B
:10307000FFE7119801F0B0FAFFE711980068406986
:10308000C0F380100C901198406C0007002804D405
:10309000FFE70C9800283ED0FFE7119801F03EFAB8
:1030A000119800684069400600282FD5FFE7FFE728
:1030B000FFE71198006850E8050F20F040000B90E2
:1030C000FFE70B991198026842E805100028F0D13B
:1030D000FFE7FFE71198C06B98B1FFE71198C16B4C
:1030E00044F20150C0F6000008651198C06BFDF76E
:1030F000BFFB28B1FFE71198C06B016D8847FFE760
:1031000003E01198FFF71CFFFFE703E01198FFF7BA
:1031100017FFFFE706E01198FFF712FF1199002053
:103120004864FFE7FFE73BE11198006B012840F09E
:103130001781FFE79DF84000C006002840F110818C
:10314000FFE79DF83C00C006002840F10981FFE739
:10315000FFE700200A901198006800680A90119813
:10316000006840680A900A98FFE711980068406973
:103170004006002840F19A80FFE71198C06B006874
:103180004068ADF82600BDF82600002875D0FFE79E
:10319000BDF826001199898D88426EDAFFE7BDF8E7
:1031A00026001199C8851198C06BC069B0F5807F61
:1031B00058D0FFE7FFE7FFE71198006850E8030FDA
:1031C00020F480700890FFE708991198026842E89F
:1031D00003100028F0D1FFE7FFE7FFE7FFE71198B2
:1031E000006850E8050F20F001000790FFE70799FD
:1031F0001198026842E805100028F0D1FFE7FFE7C8
:10320000FFE7FFE71198006850E8050F20F0400045
:103210000690FFE706991198026842E80510002819
:10322000F0D1FFE7FFE71199202081F842001199C2
:1032300000200863FFE7FFE71198006850E8030FDC
:1032400020F010000590FFE705991198026842E808
:1032500003100028F0D1FFE7FFE71198C06BFDF7DE
:1032600091FAFFE71199022048631198818DC28D70
:10327000891A89B2FFF75EFE17E0BDF826001199A2
:10328000898D884210D1FFE71198C06BC069B0F5F5
:10329000807F08D1FFE71199022048631198818D42
:1032A000FFF748FEFFE7FFE7FFE779E01199888D18
:1032B000C98D401AADF812001198C08D00284ED06B
:1032C000FFE7BDF81200002849D0FFE7FFE7FFE75E
:1032D0001198006850E8030F20F490700390FFE706
:1032E00003991198026842E803100028F0D1FFE723
:1032F000FFE7FFE7FFE71198006850E8050F20F0AF
:1033000001000290FFE702991198026842E8051057
:103310000028F0D1FFE7FFE71199202081F8420053
:10332000119900200863FFE7FFE71198006850E853
:10333000030F20F010000190FFE701991198026837
:1033400042E803100028F0D1FFE7FFE711990220BF
:1033500048631198BDF81210FFF7ECFDFFE71FE07E
:103360009DF84000000600280AD5FFE79DF83C00C4
:103370000006002804D5FFE7119801F07FFA0FE05E
:103380009DF84000400600280AD5FFE79DF83C0064
:103390004006002804D5FFE7119801F009F9FFE77E
:1033A00012B080BD80B582B00090009820B9FFE7D0
:1033B00001208DF8070040E00098806908B1FFE720
:1033C00000E0FFE7009890F8410040B9FFE700995E
:1033D000002081F84000009800F034F8FFE70099E1
:1033E000242081F8410000980168C86820F400504A
:1033F000C860009801F0A4F900980168086920F4F9
:103400009040086100980168486920F02A004861EE
:1034100000980168C86840F40050C8600099002016
:103420004864009A202182F84110009A82F84210E4
:10343000009948638DF80700FFE79DF8070002B088
:1034400080BD000080B58CB00B9000200A900990E0
:103450000890079006900B98006844F60001C4F2AB
:10346000000188426CD1FFE7FFE70020059043F69A
:103470004000C4F20200016841F48021016000684C
:1034800000F4802005900598FFE7FFE700200490F6
:1034900043F63000C4F20200016841F0020101600D
:1034A000006800F0020004900498FFE74FF44060C9
:1034B00006900220079000200290089003200990B7
:1034C00007200A9040F20040C4F2020006A9FDF76E
:1034D00039FC029940F29800C2F20000039046F2D3
:1034E0002802C4F2020202604FF000624260816072
:1034F000C1604FF480620261416181614FF480726A
:10350000C2614FF4803202624162FDF763FB18B181
:10351000FFE7FDF733F9FFE7FFE70B9840F298016B
:10352000C2F20001C1630B988863FFE72720019076
:1035300005210022FDF798FE0198FDF78BFEFFE7BD
:103540000CB080BD80B58AB008900791ADF81A2004
:10355000059300200290089890F84200202840F03F
:103560008880FFE7079820B1FFE7BDF81A0020B96F
:10357000FFE701208DF827007FE0089900204864CC
:10358000089A222182F8421008990863FDF7CEFDBF
:103590000290BDF81A0008998885BDF81A000899AC
:1035A000C88508988068B0F5805F09D1FFE7089862
:1035B000006928B9FFE7002004900798039004E011
:1035C0000798049000200390FFE7FFE70898C08D5C
:1035D000002846D0FFE70898029B05996A461160CB
:1035E0002021002201F094F940B1FFE70899202042
:1035F00081F8420003208DF827003EE0049858B976
:10360000FFE70898006840686FF35F20039908801F
:103610000398023003901FE008988068B0F5805F3F
:1036200008D0FFE70898806850B9FFE7089800695C
:1036300030B9FFE70898006840680499087007E00F
:1036400008980068406800F07F0004990870FFE760
:10365000049801300490FFE70899C88D0138C885A7
:10366000B4E70899202081F8420000208DF8270057
:1036700003E002208DF82700FFE79DF827000AB03D
:1036800080BD000080B582B00190019840F2B82161
:10369000C2F20001884248D1FFE740F2B820C2F2EE
:1036A00000000068006800F020010020B0EB511F0E
:1036B00007D0FFE740F27800C2F2000001F0AEFA56
:1036C000FFE740F2B820C2F200000068006800F096
:1036D00010010020B0EB111F26D0FFE7FFE700200C
:1036E000009040F2B820C2F2000001680968009121
:1036F0000068406800900098FFE740F27800C2F24E
:103700000000406878B1FFE740F27800C2F20000A4
:103710008078C00738B9FFE740F27801C2F20001B3
:1037200001208870FFE7FFE7FFE702B080BD0000DF
:1037300081B0009001B07047FFE7FEE780B582B02E
:10374000FFE70020019043F63000C4F20200016858
:1037500041F400110160006800F40010019001982C
:10376000FFE70C20009005210022FDF77DFD009869
:10377000FDF770FD02B080BD80B543F61550C0F670
:10378000000047F6D072C0F60002002101F0A4FC50
:1037900040F29401C2F20001086080BD80B58CB097
:1037A00000200B900A90099008900790FFE70020F6
:1037B000069043F63000C4F20200016841F0800137
:1037C0000160006800F0800006900698FFE7FFE7C0
:1037D0000020059043F63000C4F20200016841F079
:1037E00001010160006800F0010005900598FFE705
:1037F000FFE70020049043F63000C4F202000168A5
:1038000041F002010160006800F002000490049899
:10381000FFE7FFE70020039043F63000C4F2020008
:10382000016841F004010160006800F004000390A9
:103830000398FFE70020C4F2020002904FF4C05149
:10384000009100220192FDF759FC009A019902981B
:1038500007920122089209910A9107A9FDF772FACD
:103860000CB080BD80B582B040F2F800C2F200001A
:10387000009043F60041C4F2000101604FF48271F0
:103880004160002101918160C160016141614FF49B
:1038900000728261C1610162416281620A21C1627A
:1038A000FEF734FA18B1FFE7FCF768FFFFE702B054
:1038B00080BD000080B584B0002103910291019188
:1038C000009140F25010C2F2000041F60002C4F232
:1038D0000002026053224260816040F2E732C2601F
:1038E000016180218161FEF7D7FB18B1FFE7FCF78A
:1038F00045FFFFE74FF48050009040F25010C2F2B5
:1039000000006946FEF7E0FC18B1FFE7FCF736FF60
:10391000FFE704B080BD000080B540F29810C2F20D
:10392000000041F60041C4F20001016053214160F2
:103930000021816040F2E732C26001618021816133
:10394000FEF7AAFB18B1FFE7FCF718FFFFE780BD01
:1039500080B58EB005A801902421FCF762FD019985
:10396000002202920492039240F2E010C2F20000A0
:103970004FF080430360426082604FF6FF73C36084
:103980000261826103230593069201230793089243
:1039900009920A920B930C920D92FEF757FD18B103
:1039A000FFE7FCF7EBFEFFE700200390049040F2F6
:1039B000E010C2F2000003A9FEF7DCFA18B1FFE73D
:1039C000FCF7DCFEFFE70EB080BD000080B58EB0D6
:1039D00005A801902421FCF724FD01990022029200
:1039E0000492039240F22820C2F2000040F2004309
:1039F000C4F200030360426082604FF6FF73C3604D
:103A000002618261032305930692012307930892C2
:103A100009920A920B930C920D92FEF717FD18B1C2
:103A2000FFE7FCF7ABFEFFE700200390049040F2B5
:103A30002820C2F2000003A9FEF79CFA18B1FFE7A4
:103A4000FCF79CFEFFE70EB080BD000080B594B08F
:103A50000021019113911291119110910F910E91EA
:103A60000D910C910B910A91099108910791069182
:103A700005910491039140F27020C2F2000002907F
:103A800040F20042C4F201020260A722426081605B
:103A90006322C2600161416180218161FFF786F884
:103AA00018B1FFE7FCF76AFEFFE7002012901390C1
:103AB00040F27020C2F2000012A9FEF75BFA18B1C2
:103AC000FFE7FCF75BFEFFE760200B9000200C9007
:103AD0000D900E900F901090119040F27020C2F255
:103AE00000000BA90822FEF7BFFF18B1FFE7FCF7A3
:103AF00045FEFFE740F27020C2F200000BA90C2245
:103B0000FEF7B2FF18B1FFE7FCF738FEFFE7002031
:103B1000039004900590069007904FF4005108918F
:103B20000A9040F27020C2F2000003A9FEF7C8F923
:103B300018B1FFE7FCF722FEFFE740F27020C2F267
:103B40000000FEF755FF14B080BD000080B582B0C4
:103B500040F2B820C2F20000019044F60001C4F225
:103B6000000101604FF4E131416000218160C160DA
:103B700001610C2242618161C161FFF713FC18B140
:103B8000FFE7FCF7FBFDFFE740F2B820C2F20000C0
:103B90000168C86840F01000C86002B080BD000035
:103BA000FFE7FEE7FFE7FEE788B007900691059282
:103BB000079800F0070004900498C0F1070005285A
:103BC00003D3FFE70420019004E00498C0F107004C
:103BD0000190FFE70198039004980430062803D869
:103BE000FFE70020009003E0049803380090FFE70F
:103BF0000098029006980399012202FA01F1013916
:103C00000840029B984005999A40013A11400843A8
:103C100008B0704780B588B007900691059204936C
:103C20008DED030ACDED020A8DED011A079945F2DB
:103C3000FD40C0F600008866079945F23D50C0F689
:103C40000000C8660798D0F868C00699059A049BDA
:103C50009DED030ADDED020A9DED011AE04708B073
:103C600080BD000000000000000000000000000017
:103C7000EFF30980BFF36F8F154B1A681EF0100F1A
:103C800008BF20ED108A20E9F04F10602DE90900EF
:103C90004FF0500080F31188BFF34F8FBFF36F8F49
:103CA00003F050F84FF0000080F31188BDE80900E0
:103CB00019680868B0E8F04F1EF0100F08BFB0ECAC
:103CC000108A80F30988BFF36F8F704700BF00BF71
:103CD000400500200000000000000000000000007F
:103CE000074B19680868B0E8F04F80F30988BFF304
:103CF0006F8F4FF0000080F31188704700BF00BF46
:103D00004005002080B56FF00400002101F02AF882
:103D100080BD000080B582B00190FFE7012001F076
:103D200073F9FBE780B582B0009000980138B0F1DC
:103D3000807F03D3FFE70120019019E0009801384C
:103D40004EF21401CEF2000108604FF0FF300F2157
:103D500000F0E6FF4EF21801CEF2000100200860EC
:103D60004EF21002CEF20002072111600190FFE72F
:103D7000019802B080BD000080B5FDF7DDF903F0C9
:103D8000BDFD012803D0FFE703F0ECF8FFE780BD9D
:103D900080B594B008A83021FCF743FB00200790C1
:103DA0000690059004900390FFE70020029043F6F0
:103DB0004000C4F20200016841F0805101600068D7
:103DC00000F0805002900298FFE7FFE7002001908A
:103DD00047F20000C4F20000016841F48041016034
:103DE000006800F4804001900198FFE701200890EE
:103DF0004FF48030099002200E904FF480010F9113
:103E00000C211091A821119112900420139008A860
:103E1000FDF71CFC18B1FFE7FCF7B0FCFFE70F2033
:103E2000039002200490002005904FF4A0500690CB
:103E30004FF48050079003A80521FDF737FA18B119
:103E4000FFE7FCF79BFCFFE714B080BD4EF68851FE
:103E5000CEF20001086840F470000860704700006E
:103E600080B540F27020C2F20000FEF7B3FC40F2D1
:103E70005010C2F20000FEF7ADFC80BD80B540F2EC
:103E80007020C2F20000FEF7A5FC80BD80B540F2B4
:103E90007020C2F20000FEF79DFC40F29810C2F2C2
:103EA0000000FEF797FC80BD83B00290019102985C
:103EB0000068009002980021C4F20101884225D0D8
:103EC000FFE70298B0F1804F20D0FFE7029840F260
:103ED0000041C4F20001884218D0FFE7029840F682
:103EE0000001C4F20001884210D0FFE7029840F6BA
:103EF0000041C4F20001884208D0FFE7029840F276
:103F00000041C4F2010188420AD1FFE7009820F085
:103F10007000009001984168009808430090FFE706
:103F200002980021C4F20101884255D0FFE70298AF
:103F3000B0F1804F50D0FFE7029840F20041C4F248
:103F40000001884248D0FFE7029840F60001C4F221
:103F50000001884240D0FFE7029840F60041C4F2D9
:103F60000001884238D0FFE7029840F20041C4F2D5
:103F70000101884230D0FFE7029844F20001C4F208
:103F80000101884228D0FFE7029844F20041C4F2C0
:103F90000101884220D0FFE7029844F60001C4F2F4
:103FA0000101884218D0FFE7029841F60001C4F2EF
:103FB0000001884210D0FFE7029841F60041C4F2A8
:103FC0000001884208D0FFE7029842F20001C4F2E3
:103FD000000188420AD1FFE7009820F44070009069
:103FE0000198C168009808430090FFE7009820F00E
:103FF00080000199496908430090019880680299FE
:10400000C862019800680299886202980021C4F28F
:104010000101884208D0FFE7029840F20041C4F253
:104020000101884205D1FFE7019800690299086300
:10403000FFE70299086840F0040008600299012037
:10404000486100980299086003B0704784B00390FB
:1040500002910192029800F01F0101208840009017
:10406000009A0399086A904308620198029901F046
:104070001F0100FA01F20399086A1043086204B0B4
:104080007047000085B00490039102920193049858
:1040900080680090009820F47F4000900398029977
:1040A000019A41EA022101430098084300900098D8
:1040B0000499886005B0704783B00290019102981E
:1040C00080680090009820F070000090019800999E
:1040D000084340F00700009000980299886003B000
:1040E0007047000085B0049003910498006A019025
:1040F0000499086A20F00100086204984068009062
:10410000049880690290029820F070000290029852
:1041100020F003000290039801680298084302907F
:10412000019820F0020001900398816801980843EB
:10413000019004980021C4F20101884208D0FFE7F1
:10414000049840F20041C4F2010188420ED1FFE719
:10415000019820F0080001900398C1680198084375
:104160000190019820F004000190FFE704980021DD
:10417000C4F20101884208D0FFE7049840F20041F0
:10418000C4F20101884213D1FFE7009820F4807047
:104190000090009820F40070009003984169009806
:1041A0000843009003988169009808430090FFE756
:1041B00000980499486002980499886103984068BF
:1041C0000499486301980499086205B0704700009B
:1041D00085B0049003910498006A01900499086ADC
:1041E00020F01000086204984068009004988069EC
:1041F0000290029820F4E0400290029820F440706F
:10420000029003980168029840EA01200290019808
:1042100020F02000019003988168019840EA011085
:10422000019004980021C4F20101884208D0FFE700
:10423000049840F20041C4F2010188420FD1FFE727
:10424000019820F0800001900398C168019840EA2D
:1042500001100190019820F040000190FFE70498C0
:104260000021C4F20101884208D0FFE7049840F21F
:104270000041C4F20101884215D1FFE7009820F403
:1042800080600090009820F40060009003984169DD
:10429000009840EA8100009003988169009840EA04
:1042A00081000090FFE70098049948600298049903
:1042B00088610398406804998863019804990862AA
:1042C00005B0704785B0049003910498006A01908E
:1042D0000499086A20F4807008620498406800908D
:1042E0000498C0690290029820F070000290029831
:1042F00020F003000290039801680298084302909E
:10430000019820F40070019003988168019840EAB8
:104310000120019004980021C4F20101884208D0D4
:10432000FFE7049840F20041C4F2010188420FD136
:10433000FFE7019820F4006001900398C16801989C
:1043400040EA01200190019820F480600190FFE78D
:1043500004980021C4F20101884208D0FFE70498C4
:1043600040F20041C4F20101884215D1FFE70098F4
:1043700020F480500090009820F4005000900398A2
:104380004169009840EA0110009003988169009803
:1043900040EA01100090FFE70098049948600298F5
:1043A0000499C861039840680499C8630198049906
:1043B000086205B07047000085B00490039104982E
:1043C000006A01900499086A20F4805008620498F9
:1043D000406800900498C0690290029820F4E04080
:1043E0000290029820F440700290039801680298AD
:1043F00040EA01200290019820F4005001900398B7
:104400008168019840EA0130019004980021C4F2CB
:104410000101884208D0FFE7049840F20041C4F24D
:10442000010188420BD1FFE7009820F48040009002
:1044300003984169009840EA81100090FFE70098D6
:104440000499486002980499C861039840680499E7
:10445000086401980499086205B0704785B004901B
:10446000039102920498006A00900499086A20F06F
:1044700001000862049880690190019820F0F00022
:1044800001900299019840EA01100190009820F0F3
:104490000A0000900399009808430090019804993D
:1044A000886100980499086205B0704785B004904F
:1044B000039102920498006A00900499086A20F01F
:1044C00010000862049880690190019820F47040FF
:1044D00001900299019840EA01300190009820F083
:1044E000A00000900399009840EA01100090019804
:1044F0000499886100980499086205B0704700002B
:1045000080B582B001900198806B009000990020E6
:10451000C8850098FEF714FD02B080BD84B00390FA
:10452000FFE7FFE70398006850E8030F20F490705E
:104530000290FFE702990398026842E803100028FE
:10454000F0D1FFE7FFE7FFE7FFE70398006850E8D7
:10455000050F20F001000190FFE701990398026820
:1045600042E805100028F0D1FFE7FFE70398006B51
:10457000012814D1FFE7FFE7FFE70398006850E840
:10458000030F20F010000090FFE7009903980268E5
:1045900042E803100028F0D1FFE7FFE7FFE70399A7
:1045A000202081F8420003990020086304B070477E
:1045B00080B582B0019001980168C86820F0400081
:1045C000C8600199202081F841000198FFF7B0F8F8
:1045D000002002B080BD000080B586B004900020AD
:1045E00003900290049890F84200222840F0A080A6
:1045F000FFE704988068B0F5805F13D1FFE7049867
:10460000006978B9FFE70498806A0290049800680E
:1046100040686FF35F20029908800499886A02302D
:10462000886223E00498806A039004988068B0F55B
:10463000805F08D0FFE70498806850B9FFE70498CE
:10464000006930B9FFE70498006840680399087072
:1046500007E004980068406800F07F000399087044
:10466000FFE70499886A01308862FFE70499C88DE2
:104670000138C8850004002856D1FFE70498016876
:10468000C86820F02000C86004980168C86820F459
:104690008070C86004980168486920F00100486192
:1046A0000499202081F8420004990020486304986E
:1046B000006B012830D1FFE7049900200863FFE771
:1046C000FFE70498006850E8030F20F01000019005
:1046D000FFE701990498026842E803100028F0D12E
:1046E000FFE7FFE7049800680068C00600280ED5C1
:1046F000FFE7FFE700200090049800680068009042
:1047000004980068406800900098FFE7FFE704986D
:10471000818DFEF70FFC03E00498FEF7B3FFFFE77F
:1047200000208DF8170007E000208DF8170003E047
:1047300002208DF81700FFE79DF8170006B080BD36
:1047400080B586B0059005980068006920F4405057
:10475000059A1168D26810430861059988680B6949
:104760004A69C969184310430843049005980068D2
:10477000C06849F20C6188430499084305990968A7
:10478000C86005980068406920F44070059A116877
:104790009269104348610598006841F20001C4F233
:1047A0000101884209D0FFE70598006841F2004105
:1047B000C4F20101884204D1FFE7FCF7C1FE039077
:1047C00003E0FCF7ABFE0390FFE70598C069B0F586
:1047D000004F29D1FFE703981921A0FB0101059A99
:1047E0001368029353685A00DB0FFBF755FD0299DB
:1047F000864648F21F53C5F2EB13AEFB0320420975
:1048000010014FF0640C02FB1CEC322202EBCC02D4
:10481000A2FB0332F82303EA521300EB4300C2F376
:1048200042121044886026E003981921A0FB010180
:10483000059A1368019353689A009B0FFBF72CFDB0
:104840000199844648F21F52C5F2EB12ACFB0230CC
:104850004309642003FB10CC322000EB0C10A0FBBA
:104860000202F02000EA521000EB0310C2F34312E0
:1048700010448860FFE706B080BD000083B001905F
:10488000019890F8410021283AD1FFE7019880680B
:10489000B0F5805F13D1FFE70198006978B9FFE7B1
:1048A0000198006A0090009800886FF35F200199DA
:1048B000096848600199086A0230086208E0019AB4
:1048C000106A411C11620078019909684860FFE78D
:1048D0000199C88C0138C884000468B9FFE70198C1
:1048E0000168C86820F08000C86001980168C86845
:1048F00040F04000C860FFE700208DF80B0003E0A7
:1049000002208DF80B00FFE79DF80B0003B0704705
:1049100080B586B0DDF820C0049003918DF80B209F
:104920000193FFE704980068006803990840401A63
:10493000B0FA80F040099DF80B1088424DD1FFE796
:1049400008980130002847D0FFE7FCF7EFFB0199FA
:10495000401A0899884203D8FFE7089820B9FFE772
:1049600003208DF817003CE004980068C0684007F9
:10497000002830D5FFE7039880282CD0FFE7039864
:10498000402828D0FFE704980068006800F008017C
:104990000120B0EBD10F1DD1FFE7FFE70020009011
:1049A00004980068006800900498006840680090CF
:1049B0000098FFE70498FFF7B1FD049908204864C8
:1049C000FFE70499002081F84000FFE701208DF8FF
:1049D000170006E0FFE7FFE7A4E700208DF81700C7
:1049E000FFE79DF8170006B080BD000080B540F2DB
:1049F000B820C2F20000FEF7A7FA80BDFFE7FEE78D
:104A000080B500F011FA00F02DFA80BD80B582B0BB
:104A10000190FFE70A2002F07FF8FBE780B582B043
:104A20000190FFE70A2002F077F8FBE780B582B03B
:104A30000190FFE70A2002F06FF8FBE780B582B033
:104A400001900198009040F29810C2F20000FDF72A
:104A5000BFFB40F25010C2F20000FDF7B9FB009915
:104A600008684968FEF732F9009800693C21FDF7B3
:104A700005FE0098343003215A220A239FED041AC0
:104A8000B0EE410AF0EE410AFFF7C4F802B080BD73
:104A90000000000080B586B0059004910598039051
:104AA0000498002818D4FFE70498642814DCFFE772
:104AB0000398006A012807D1FFE70399886889896C
:104AC0000022FCF71BFB06E0039988688989012214
:104AD000FCF714FBFFE724E00498B0F1FF3F1CDC77
:104AE000FFE7049810F1640F17DBFFE703980499C0
:104AF00049420491006A012807D1FFE703998868B9
:104B000089890122FCF7FAFA06E003998868898905
:104B10000022FCF7F3FAFFE702E000200490FFE731
:104B2000FFE70398406838B9FFE7039804990068E5
:104B3000006840F8341F26E003984068042808D134
:104B4000FFE7039804990068006840F8381F029056
:104B500017E003984068082808D1FFE703980499F4
:104B60000068006840F83C1F019007E00398049932
:104B70000068006840F8401F0190FFE7019802902C
:104B8000FFE70298FFE706B080BD000083B0029007
:104B90000298009001690968496A8162806AB0F5EB
:104BA000004F07DBFFE70099886A4FF6FF72801A13
:104BB0008862FFE70099086902680020506291ED61
:104BC0000A0AB8EEC00A8DED010A0198C86203B066
:104BD0007047000085B08446079806980598CDF880
:104BE00010C0039102920193ADF80200049803995A
:104BF00001600299416001998160BDF802108181D4
:104C000006990161682141612C2181614FF4C871CD
:104C1000C1610799016205B07047000080B582B09C
:104C2000019040F2B820C2F200000DF10301012210
:104C30004FF47A73FEF786FC40F27800C2F200006F
:104C40008078C007C0B9FFE79DF8031040F27800F4
:104C5000C2F20000426802441172416801314160B1
:104C60004068082807DBFFE740F27801C2F2000144
:104C700000204860FFE7FFE702B080BD87B00590E5
:104C80000599029106910020087201F10900103186
:104C900003910490FFE70499039A002001F8010BA7
:104CA000084691420490F6D1FFE70299002008746B
:104CB00001F11100183100910190FFE70199009A6C
:104CC000002001F8010B084691420190F6D1FFE760
:104CD00002990020088088704860069807B07047E5
:104CE00081B08DF803009DF9030000280ED4FFE782
:104CF0009DF9031001F01F02012090404A094EF275
:104D00000011CEF2000141F82200FFE701B0704728
:104D10004EF60C50CEF200000068C0F3022070473F
:104D200082B08DF8070000919DF9070000280AD491
:104D3000FFE7009800019DF907104EF20042CEF205
:104D4000000288540BE0009800019DF8071001F064
:104D50000F014EF61452CEF200028854FFE702B063
:104D60007047000082B08DF8070000919DF90700A0
:104D700000280AD4FFE7009800019DF907104EF2C1
:104D80000042CEF2000288540BE0009800019DF82A
:104D9000071001F00F014EF61452CEF200028854B3
:104DA000FFE702B07047000083B00290029800F065
:104DB000070000904EF60C51CEF2000108680190F9
:104DC00001984FF6FF02104001900198009A40EAC6
:104DD00002200022C0F2FA521043019001980860AC
:104DE00003B0704780B540F27400C2F20000007852
:104DF000BFF35F8FC007A8B9FFE740F27400C2F2AB
:104E0000000001F026FC68B1FFE740F27800C2F232
:104E10000000FFF733FF40F27400C2F2000001F01F
:104E20002EFCFFE780BD000080B584B069460120FC
:104E3000886040F22820C2F2000048604FF48050A1
:104E4000086040F20030C2F2000040F27021C2F26D
:104E500000010C220023C4F20203FFF7BBFE04B0E2
:104E600080BD000080B584B069460020886040F2B3
:104E7000E010C2F2000048604FF40060086040F2A9
:104E8000A430C2F2000040F27021C2F200010822F8
:104E90000023C4F20203FFF79DFE04B080BDFBF7C0
:104EA00033FB000082B001908DED000A019890ED77
:104EB000000A9DED001AB4EE410AF1EE10FA04DD8D
:104EC000FFE7009801990860FFE7019890ED000A5C
:104ED0009DED001AB1EE411AB4EE410AF1EE10FA5E
:104EE00008DAFFE79DED000AB1EE400A019880ED77
:104EF000000AFFE702B0704780B582B00020019041
:104F0000FCF728F9FEF744FFFEF748FCFEF716FC15
:104F1000FEF75CFDFEF79AFDFEF718FEFEF7A2FC19
:104F2000FEF716FDFEF7C6FCFEF7F6FC00F008F8EB
:104F300000F084F8FEF720FC00F0A4F8FFE7FEE79D
:104F400080B588B040F20030C2F20000FFF776FD75
:104F500040F2A430C2F20000FFF770FD40F6B81036
:104F6000C2F200006946486004200490086044F6DC
:104F70000D20C0F6000048F21201C0F60001C82260
:104F800002920023039302F001FC029A039B014664
:104F90000498079140F2900CC2F2000C6946C1F8E7
:104FA00004C0086044F62D20C0F6000048F21F013E
:104FB000C0F6000102F0EAFB029A039B0146049846
:104FC000069140F2484CC2F2000C6946C1F804C098
:104FD000086044F61D20C0F6000048F22F01C0F61C
:104FE000000102F0D3FB05900798012808D1FFE7E4
:104FF0000698012804D1FFE70598012802D0FFE7B1
:10500000FFE7FEE708B080BD80B584B00290EFF303
:1050100005800390039820B1FFE76FF00500019031
:1050200009E000200190029820B1FFE7029801F00A
:1050300073FDFFE7FFE7019804B080BD82B0EFF396
:1050400005800190019820B1FFE76FF00500009006
:1050500014E040F27000C2F20000006848B9FFE7B7
:1050600040F27001C2F200010120086000200090AF
:1050700003E04FF0FF300090FFE7FFE7009802B039
:105080007047000080B582B0EFF305800190019871
:1050900020B1FFE76FF00500009019E040F27000CA
:1050A000C2F20000006801280DD1FFE7FEF72AFEDA
:1050B00040F27001C2F200010220086001F0CAFD56
:1050C0000020009003E04FF0FF300090FFE7FFE783
:1050D000009802B080BD0000B0B58EB00B900A9170
:1050E000099200200690EFF305800D900D9800289E
:1050F00040F09980FFE70B98002800F09480FFE7CC
:105100008020079018200590002008904FF0FF3075
:105110000490099800284DD0FFE70998006820B155
:10512000FFE7099800680890FFE70998806920B1B7
:10513000FFE7099880690590FFE7059848B1FFE708
:105140000598382805D8FFE709980079C00718B1F5
:10515000FFE700200C9069E00998406928B1FFE75B
:105160000998406980080790FFE70998806880B136
:10517000FFE70998C0685C280BD3FFE7099800692E
:1051800038B1FFE70998406918B1FFE701200490A2
:105190000FE00998806858B9FFE70998C06838B9E6
:1051A000FFE70998006918B9FFE700200490FFE7BE
:1051B000FFE702E000200490FFE70498012817D1E0
:1051C000FFE70B980899079A0A9BDDF814C0DDF8F1
:1051D00024E0DEF80850DEF81040EE46CEF8085025
:1051E000CEF80440CEF800C002F020FB069019E093
:1051F0000498B0B9FFE70B980899BDF81C200A9BEA
:10520000DDF814C0EE4606ACCEF80440CEF800C07F
:1052100002F0BCFA012803D0FFE700200690FFE768
:10522000FFE7FFE7FFE706980C90FFE70C980EB04A
:10523000B0BD000080B588B006908DED050ACDEDBB
:10524000040A0598069908620498069948619DED3C
:10525000040A9DED051A30EE410A069880ED0B0A0E
:10526000069890ED150AB5EE400AF1EE10FA25D039
:10527000FFE7069890ED0B0AB5EE400AF1EE10FA42
:1052800006DDFFE7069890ED0B0A8DED030A07E0B7
:10529000069890ED0B0AB1EE400A8DED030AFFE788
:1052A0009DED030A069890ED151AB4EE410AF1EE51
:1052B00010FA03DDFFE7002007901AE1069890ED51
:1052C000160AB5EE400AF1EE10FA25D0FFE706986F
:1052D00090ED0B0AB5EE400AF1EE10FA06DDFFE79D
:1052E000069890ED0B0A8DED020A07E0069890ED06
:1052F0000B0AB1EE400A8DED020AFFE79DED020AAE
:10530000069890ED161AB4EE410AF1EE10FA03DA9F
:10531000FFE700200790ECE00698C06D032846D117
:10532000FFE7069890ED000A90ED0B1A20EE010AB7
:1053300080ED0C0A069890ED010A90ED0B2A90ED95
:105340000D1A20EE020A30EE010A80ED0D0A0698D1
:1053500090ED020A90ED0A2A90ED0B1A31EE421AF6
:1053600020EE010A80ED0E0A069901F1340091ED5C
:10537000190AB8EE400AFFF795FD069890ED0C0A61
:1053800090ED0D2A90ED0E1A30EE020A30EE010A71
:1053900080ED0F0A069901F13C0091ED180AB8EE74
:1053A000400AFFF77FFD0699C86B086463E0069822
:1053B000C06D04285ED1FFE7069890ED000A90EDDD
:1053C0000A2A90ED0B1A31EE421A20EE010A80ED06
:1053D0000C0A069890ED010A90ED0B1A20EE010AD6
:1053E00080ED0D0A069890ED020A90ED092A90EDE5
:1053F0000A3A90ED0B1A33EE033A31EE431A31EECE
:10540000021A20EE010A80ED0E0A069901F134001D
:1054100091ED190AB8EE400AFFF744FD069890EDA9
:105420000C0A90ED0D2A90ED0E1A30EE020A30EEC5
:10543000010A80ED110A069901F1440091ED190A63
:10544000B8EE400AFFF72EFD069890ED111A90ED88
:10545000130A30EE010A80ED120A069901F14800A4
:1054600091ED180AB8EE400AFFF71CFD0699886C0A
:10547000C864FFE7FFE70699886A48620699C86A28
:1054800088620699C86988610699086AC8610699A0
:105490000869C8600699486908610698C06D0328C4
:1054A00006D1FFE7069890ED0F0A8DED010A05E0A1
:1054B000069890ED120A8DED010AFFE79DED010AB5
:1054C000069880ED140A0698C06D032806D1FFE700
:1054D000069890ED0F0A8DED000A05E0069890ED14
:1054E000120A8DED000AFFE79DED000A8DED070A17
:1054F000FFE79DED070A08B080BD000087B0069069
:105500000591049203938DED020ACDED010A8DED14
:10551000001A039806994866049806990866059843
:105520000699C8650298069908600198069948602E
:1055300000980699886007B07047000084B0039017
:105540008DED020ACDED010A8DED001A0298039946
:10555000086001980399486000980399886004B036
:105560007047000080B584B00390029144F69050DB
:10557000C2F200000068009040F24050C2F2000009
:105580000068043001F080F808B9FFE700E0FFE7A9
:105590000398013080B9FFE7029868B1FFE740F255
:1055A0004050C2F200000068011D44F66850C2F28B
:1055B000000001F00FF93DE00098039908440190C4
:1055C000019840F24051C2F2000109684860019818
:1055D000009988420ED2FFE740F25050C2F200001C
:1055E000006840F24051C2F200010968043101F044
:1055F000BBF81EE040F24850C2F20000006840F2E2
:105600004051C2F200010968043101F0ADF801987F
:1056100044F6F441C2F200010968884207D2FFE76C
:10562000019844F6F441C2F20001086000E0FFE78F
:10563000FFE7FFE704B080BD80B582B0019001F0C4
:10564000F1F844F2C851C2F2000108680130086064
:1056500040F24050C2F20000006898B9FFE701989C
:1056600040F24051C2F20001086044F2C850C2F258
:1056700000000068012803D1FFE700F0F7FA00E01E
:10568000FFE71CE044F65C50C2F200000068A0B9DD
:10569000FFE740F24050C2F200000068C06A019982
:1056A000C96A884207D8FFE7019840F24051C2F228
:1056B0000001086000E0FFE700E0FFE7FFE744F2D9
:1056C000D450C2F200000168013101600068019904
:1056D00048640198C06A44F2D851C2F200010968D6
:1056E000884208D9FFE70198C06A44F2D851C2F253
:1056F00000010860FFE70199C86A00EB800240F2F0
:105700005850C2F2000000EB8200043101F062F850
:1057100001F0B4F844F65C50C2F200000068C8B171
:10572000FFE740F24050C2F200000068C06A0199F1
:10573000C96A88420CD2FFE74EF60451CEF200014E
:105740004FF080500860BFF34F8FBFF36F8F00E0C2
:10575000FFE700E0FFE702B080BD000080B584B045
:1057600001F060F844F69450C2F20000006800288E
:1057700040D1FFE744F69440C2F20000029000F0EE
:10578000D3FF44F6A840C2F20000039000F0CCFF23
:105790000299039840F24452C2F20002116040F2B2
:1057A0005451C2F20001086069460020086040F2CE
:1057B0004C42C2F2000240F2EC43C2F200030A2063
:1057C000102101F0EDFB014644F69450C2F20000B6
:1057D0000160006860B1FFE744F69450C2F2000037
:1057E000006848F20501C0F6000101F039F900E057
:1057F000FFE700E0FFE701F041F804B080BD0000E2
:1058000080B582B0FFE744F2CC50C2F200000068DD
:1058100008B3FFE701F006F844F67C50C2F200003E
:10582000C068C06801900198043000F02DFF44F278
:10583000C851C2F2000108680138086044F2CC5136
:10584000C2F2000108680138086001F017F80198F9
:1058500000F08CF8D7E702B080BD000080B582B0C0
:10586000019000910198006CB8B1FFE70199C868F8
:105870000A6C1044C86001988168C068884204D3EB
:10588000FFE701990868C86000E0FFE70098019A07
:10589000D168126CFAF778FDFFE702B080BD000016
:1058A00080B586B00590049103920020029005987F
:1058B000806B01900598006C78B9FFE70598006847
:1058C00048B9FFE70598806802F020F90290059931
:1058D0000020886000E0FFE741E00398B8B9FFE7E7
:1058E000059A04995068126CFAF74EFD05994868BC
:1058F0000A6C10444860059948688968884204D356
:10590000FFE705990868486000E0FFE726E0059A90
:105910000499D068126CFAF737FD0599C8680A6CCB
:10592000801AC86005980168C068884206D2FFE7FF
:10593000059988680A6C801AC86000E0FFE7039840
:10594000022809D1FFE7019820B1FFE7019801384B
:10595000019000E0FFE700E0FFE7FFE7FFE70198C5
:10596000013005998863029806B080BD80B582B089
:105970000090009890F8590040B9FFE70098006B3C
:1059800000F0A2FF009800F09FFF1CE0009890F844
:105990005900012804D1FFE7009800F095FF11E0BD
:1059A000009890F8590002280BD0FFE74FF0500004
:1059B00080F31188BFF36F8FBFF34F8F0190FFE724
:1059C000FEE7FFE7FFE702B080BD000082B0019074
:1059D00040F24450C2F2000000680068B0FA80F063
:1059E0004009019908600198006848B9FFE740F252
:1059F0004450C2F200000068C0680068009002E0F5
:105A000000200090FFE7009802B0704784B04FF488
:105A10007050009040F6BC10C2F2000001909DF85A
:105A20000400400788B1FFE7019807300190019812
:105A300020F007000190019A40F6BC11C2F200016B
:105A40000098891A08440090FFE701980290029993
:105A500044F66050C2F200000160002141600298EB
:105A6000009A10440190019808380190019820F0A4
:105A700007000190019A40F24C50C2F2000002600F
:105A80000268516002681160029903910199039ABA
:105A9000891A51600068039908600398406844F6C9
:105AA000F041C2F2000108600398406844F6E84102
:105AB000C2F20001086044F6BC41C2F200014FF09E
:105AC0000040086004B0704780B582B00190FFE7E5
:105AD000FFF796FE40F25850C2F20000006802281C
